{
  "_format": "hh-sol-artifact-1",
  "contractName": "Vote",
  "sourceName": "contracts/Vote.sol",
  "abi": [
    {
      "inputs": [
        {
          "internalType": "address",
          "name": "initialOwner",
          "type": "address"
        },
        {
          "internalType": "string[]",
          "name": "_candidates",
          "type": "string[]"
        }
      ],
      "stateMutability": "nonpayable",
      "type": "constructor"
    },
    {
      "inputs": [
        {
          "internalType": "address",
          "name": "sender",
          "type": "address"
        },
        {
          "internalType": "uint256",
          "name": "tokenId",
          "type": "uint256"
        },
        {
          "internalType": "address",
          "name": "owner",
          "type": "address"
        }
      ],
      "name": "ERC721IncorrectOwner",
      "type": "error"
    },
    {
      "inputs": [
        {
          "internalType": "address",
          "name": "operator",
          "type": "address"
        },
        {
          "internalType": "uint256",
          "name": "tokenId",
          "type": "uint256"
        }
      ],
      "name": "ERC721InsufficientApproval",
      "type": "error"
    },
    {
      "inputs": [
        {
          "internalType": "address",
          "name": "approver",
          "type": "address"
        }
      ],
      "name": "ERC721InvalidApprover",
      "type": "error"
    },
    {
      "inputs": [
        {
          "internalType": "address",
          "name": "operator",
          "type": "address"
        }
      ],
      "name": "ERC721InvalidOperator",
      "type": "error"
    },
    {
      "inputs": [
        {
          "internalType": "address",
          "name": "owner",
          "type": "address"
        }
      ],
      "name": "ERC721InvalidOwner",
      "type": "error"
    },
    {
      "inputs": [
        {
          "internalType": "address",
          "name": "receiver",
          "type": "address"
        }
      ],
      "name": "ERC721InvalidReceiver",
      "type": "error"
    },
    {
      "inputs": [
        {
          "internalType": "address",
          "name": "sender",
          "type": "address"
        }
      ],
      "name": "ERC721InvalidSender",
      "type": "error"
    },
    {
      "inputs": [
        {
          "internalType": "uint256",
          "name": "tokenId",
          "type": "uint256"
        }
      ],
      "name": "ERC721NonexistentToken",
      "type": "error"
    },
    {
      "inputs": [],
      "name": "EnforcedPause",
      "type": "error"
    },
    {
      "inputs": [],
      "name": "ExpectedPause",
      "type": "error"
    },
    {
      "inputs": [
        {
          "internalType": "address",
          "name": "owner",
          "type": "address"
        }
      ],
      "name": "OwnableInvalidOwner",
      "type": "error"
    },
    {
      "inputs": [
        {
          "internalType": "address",
          "name": "account",
          "type": "address"
        }
      ],
      "name": "OwnableUnauthorizedAccount",
      "type": "error"
    },
    {
      "anonymous": false,
      "inputs": [
        {
          "indexed": true,
          "internalType": "address",
          "name": "owner",
          "type": "address"
        },
        {
          "indexed": true,
          "internalType": "address",
          "name": "approved",
          "type": "address"
        },
        {
          "indexed": true,
          "internalType": "uint256",
          "name": "tokenId",
          "type": "uint256"
        }
      ],
      "name": "Approval",
      "type": "event"
    },
    {
      "anonymous": false,
      "inputs": [
        {
          "indexed": true,
          "internalType": "address",
          "name": "owner",
          "type": "address"
        },
        {
          "indexed": true,
          "internalType": "address",
          "name": "operator",
          "type": "address"
        },
        {
          "indexed": false,
          "internalType": "bool",
          "name": "approved",
          "type": "bool"
        }
      ],
      "name": "ApprovalForAll",
      "type": "event"
    },
    {
      "anonymous": false,
      "inputs": [
        {
          "indexed": true,
          "internalType": "address",
          "name": "previousOwner",
          "type": "address"
        },
        {
          "indexed": true,
          "internalType": "address",
          "name": "newOwner",
          "type": "address"
        }
      ],
      "name": "OwnershipTransferred",
      "type": "event"
    },
    {
      "anonymous": false,
      "inputs": [
        {
          "indexed": false,
          "internalType": "address",
          "name": "account",
          "type": "address"
        }
      ],
      "name": "Paused",
      "type": "event"
    },
    {
      "anonymous": false,
      "inputs": [
        {
          "indexed": true,
          "internalType": "address",
          "name": "from",
          "type": "address"
        },
        {
          "indexed": true,
          "internalType": "address",
          "name": "to",
          "type": "address"
        },
        {
          "indexed": true,
          "internalType": "uint256",
          "name": "tokenId",
          "type": "uint256"
        }
      ],
      "name": "Transfer",
      "type": "event"
    },
    {
      "anonymous": false,
      "inputs": [
        {
          "indexed": false,
          "internalType": "address",
          "name": "account",
          "type": "address"
        }
      ],
      "name": "Unpaused",
      "type": "event"
    },
    {
      "anonymous": false,
      "inputs": [
        {
          "indexed": true,
          "internalType": "address",
          "name": "voter",
          "type": "address"
        }
      ],
      "name": "VoteCast",
      "type": "event"
    },
    {
      "inputs": [
        {
          "internalType": "address",
          "name": "to",
          "type": "address"
        },
        {
          "internalType": "uint256",
          "name": "tokenId",
          "type": "uint256"
        }
      ],
      "name": "approve",
      "outputs": [],
      "stateMutability": "nonpayable",
      "type": "function"
    },
    {
      "inputs": [
        {
          "internalType": "address",
          "name": "owner",
          "type": "address"
        }
      ],
      "name": "balanceOf",
      "outputs": [
        {
          "internalType": "uint256",
          "name": "",
          "type": "uint256"
        }
      ],
      "stateMutability": "view",
      "type": "function"
    },
    {
      "inputs": [
        {
          "internalType": "uint256",
          "name": "tokenId",
          "type": "uint256"
        }
      ],
      "name": "getApproved",
      "outputs": [
        {
          "internalType": "address",
          "name": "",
          "type": "address"
        }
      ],
      "stateMutability": "view",
      "type": "function"
    },
    {
      "inputs": [],
      "name": "hasVote",
      "outputs": [
        {
          "internalType": "bool",
          "name": "",
          "type": "bool"
        }
      ],
      "stateMutability": "view",
      "type": "function"
    },
    {
      "inputs": [
        {
          "internalType": "address",
          "name": "owner",
          "type": "address"
        },
        {
          "internalType": "address",
          "name": "operator",
          "type": "address"
        }
      ],
      "name": "isApprovedForAll",
      "outputs": [
        {
          "internalType": "bool",
          "name": "",
          "type": "bool"
        }
      ],
      "stateMutability": "view",
      "type": "function"
    },
    {
      "inputs": [],
      "name": "name",
      "outputs": [
        {
          "internalType": "string",
          "name": "",
          "type": "string"
        }
      ],
      "stateMutability": "view",
      "type": "function"
    },
    {
      "inputs": [],
      "name": "owner",
      "outputs": [
        {
          "internalType": "address",
          "name": "",
          "type": "address"
        }
      ],
      "stateMutability": "view",
      "type": "function"
    },
    {
      "inputs": [
        {
          "internalType": "uint256",
          "name": "tokenId",
          "type": "uint256"
        }
      ],
      "name": "ownerOf",
      "outputs": [
        {
          "internalType": "address",
          "name": "",
          "type": "address"
        }
      ],
      "stateMutability": "view",
      "type": "function"
    },
    {
      "inputs": [],
      "name": "pause",
      "outputs": [],
      "stateMutability": "nonpayable",
      "type": "function"
    },
    {
      "inputs": [],
      "name": "paused",
      "outputs": [
        {
          "internalType": "bool",
          "name": "",
          "type": "bool"
        }
      ],
      "stateMutability": "view",
      "type": "function"
    },
    {
      "inputs": [],
      "name": "renounceOwnership",
      "outputs": [],
      "stateMutability": "nonpayable",
      "type": "function"
    },
    {
      "inputs": [
        {
          "internalType": "address",
          "name": "from",
          "type": "address"
        },
        {
          "internalType": "address",
          "name": "to",
          "type": "address"
        },
        {
          "internalType": "uint256",
          "name": "tokenId",
          "type": "uint256"
        }
      ],
      "name": "safeTransferFrom",
      "outputs": [],
      "stateMutability": "nonpayable",
      "type": "function"
    },
    {
      "inputs": [
        {
          "internalType": "address",
          "name": "from",
          "type": "address"
        },
        {
          "internalType": "address",
          "name": "to",
          "type": "address"
        },
        {
          "internalType": "uint256",
          "name": "tokenId",
          "type": "uint256"
        },
        {
          "internalType": "bytes",
          "name": "data",
          "type": "bytes"
        }
      ],
      "name": "safeTransferFrom",
      "outputs": [],
      "stateMutability": "nonpayable",
      "type": "function"
    },
    {
      "inputs": [
        {
          "internalType": "address",
          "name": "operator",
          "type": "address"
        },
        {
          "internalType": "bool",
          "name": "approved",
          "type": "bool"
        }
      ],
      "name": "setApprovalForAll",
      "outputs": [],
      "stateMutability": "nonpayable",
      "type": "function"
    },
    {
      "inputs": [
        {
          "internalType": "bytes4",
          "name": "interfaceId",
          "type": "bytes4"
        }
      ],
      "name": "supportsInterface",
      "outputs": [
        {
          "internalType": "bool",
          "name": "",
          "type": "bool"
        }
      ],
      "stateMutability": "view",
      "type": "function"
    },
    {
      "inputs": [],
      "name": "symbol",
      "outputs": [
        {
          "internalType": "string",
          "name": "",
          "type": "string"
        }
      ],
      "stateMutability": "view",
      "type": "function"
    },
    {
      "inputs": [
        {
          "internalType": "uint256",
          "name": "tokenId",
          "type": "uint256"
        }
      ],
      "name": "tokenURI",
      "outputs": [
        {
          "internalType": "string",
          "name": "",
          "type": "string"
        }
      ],
      "stateMutability": "view",
      "type": "function"
    },
    {
      "inputs": [
        {
          "internalType": "address",
          "name": "from",
          "type": "address"
        },
        {
          "internalType": "address",
          "name": "to",
          "type": "address"
        },
        {
          "internalType": "uint256",
          "name": "tokenId",
          "type": "uint256"
        }
      ],
      "name": "transferFrom",
      "outputs": [],
      "stateMutability": "nonpayable",
      "type": "function"
    },
    {
      "inputs": [
        {
          "internalType": "address",
          "name": "newOwner",
          "type": "address"
        }
      ],
      "name": "transferOwnership",
      "outputs": [],
      "stateMutability": "nonpayable",
      "type": "function"
    },
    {
      "inputs": [],
      "name": "unpause",
      "outputs": [],
      "stateMutability": "nonpayable",
      "type": "function"
    },
    {
      "inputs": [
        {
          "internalType": "uint256",
          "name": "candidateId",
          "type": "uint256"
        }
      ],
      "name": "vote",
      "outputs": [],
      "stateMutability": "nonpayable",
      "type": "function"
    },
    {
      "inputs": [
        {
          "internalType": "address",
          "name": "",
          "type": "address"
        }
      ],
      "name": "voters",
      "outputs": [
        {
          "internalType": "bool",
          "name": "",
          "type": "bool"
        }
      ],
      "stateMutability": "view",
      "type": "function"
    },
    {
      "inputs": [],
      "name": "votingResult",
      "outputs": [
        {
          "components": [
            {
              "internalType": "string",
              "name": "name",
              "type": "string"
            },
            {
              "internalType": "uint256",
              "name": "votes",
              "type": "uint256"
            }
          ],
          "internalType": "struct Vote.Candidate[]",
          "name": "",
          "type": "tuple[]"
        }
      ],
      "stateMutability": "view",
      "type": "function"
    }
  ],
  "bytecode": "0x608060405260006007553480156200001657600080fd5b50604051620033c2380380620033c283398181016040528101906200003c9190620005d1565b816040518060400160405280600881526020017f494420564f5445530000000000000000000000000000000000000000000000008152506040518060400160405280600481526020017f49442d56000000000000000000000000000000000000000000000000000000008152508160009081620000ba919062000882565b508060019081620000cc919062000882565b5050506000600660006101000a81548160ff021916908315150217905550600073ffffffffffffffffffffffffffffffffffffffff168173ffffffffffffffffffffffffffffffffffffffff16036200015f5760006040517f1e4fbdf70000000000000000000000000000000000000000000000000000000081526004016200015691906200097a565b60405180910390fd5b62000170816200021760201b60201c565b5060005b81518110156200020e5760086040518060400160405280848481518110620001a157620001a062000997565b5b60200260200101518152602001600081525090806001815401808255809150506001900390600052602060002090600202016000909190919091506000820151816000019081620001f3919062000882565b50602082015181600101555050808060010191505062000174565b505050620009c6565b6000600660019054906101000a900473ffffffffffffffffffffffffffffffffffffffff16905081600660016101000a81548173ffffffffffffffffffffffffffffffffffffffff021916908373ffffffffffffffffffffffffffffffffffffffff1602179055508173ffffffffffffffffffffffffffffffffffffffff168173ffffffffffffffffffffffffffffffffffffffff167f8be0079c531659141344cd1fd0a4f28419497f9722a3daafe3b4186f6b6457e060405160405180910390a35050565b6000604051905090565b600080fd5b600080fd5b600073ffffffffffffffffffffffffffffffffffffffff82169050919050565b60006200031e82620002f1565b9050919050565b620003308162000311565b81146200033c57600080fd5b50565b600081519050620003508162000325565b92915050565b600080fd5b6000601f19601f8301169050919050565b7f4e487b7100000000000000000000000000000000000000000000000000000000600052604160045260246000fd5b620003a6826200035b565b810181811067ffffffffffffffff82111715620003c857620003c76200036c565b5b80604052505050565b6000620003dd620002dd565b9050620003eb82826200039b565b919050565b600067ffffffffffffffff8211156200040e576200040d6200036c565b5b602082029050602081019050919050565b600080fd5b600080fd5b600067ffffffffffffffff8211156200044757620004466200036c565b5b62000452826200035b565b9050602081019050919050565b60005b838110156200047f57808201518184015260208101905062000462565b60008484015250505050565b6000620004a26200049c8462000429565b620003d1565b905082815260208101848484011115620004c157620004c062000424565b5b620004ce8482856200045f565b509392505050565b600082601f830112620004ee57620004ed62000356565b5b8151620005008482602086016200048b565b91505092915050565b6000620005206200051a84620003f0565b620003d1565b905080838252602082019050602084028301858111156200054657620005456200041f565b5b835b818110156200059457805167ffffffffffffffff8111156200056f576200056e62000356565b5b8086016200057e8982620004d6565b8552602085019450505060208101905062000548565b5050509392505050565b600082601f830112620005b657620005b562000356565b5b8151620005c884826020860162000509565b91505092915050565b60008060408385031215620005eb57620005ea620002e7565b5b6000620005fb858286016200033f565b925050602083015167ffffffffffffffff8111156200061f576200061e620002ec565b5b6200062d858286016200059e565b9150509250929050565b600081519050919050565b7f4e487b7100000000000000000000000000000000000000000000000000000000600052602260045260246000fd5b600060028204905060018216806200068a57607f821691505b602082108103620006a0576200069f62000642565b5b50919050565b60008190508160005260206000209050919050565b60006020601f8301049050919050565b600082821b905092915050565b6000600883026200070a7fffffffffffffffffffffffffffffffffffffffffffffffffffffffffffffffff82620006cb565b620007168683620006cb565b95508019841693508086168417925050509392505050565b6000819050919050565b6000819050919050565b6000620007636200075d62000757846200072e565b62000738565b6200072e565b9050919050565b6000819050919050565b6200077f8362000742565b620007976200078e826200076a565b848454620006d8565b825550505050565b600090565b620007ae6200079f565b620007bb81848462000774565b505050565b5b81811015620007e357620007d7600082620007a4565b600181019050620007c1565b5050565b601f8211156200083257620007fc81620006a6565b6200080784620006bb565b8101602085101562000817578190505b6200082f6200082685620006bb565b830182620007c0565b50505b505050565b600082821c905092915050565b6000620008576000198460080262000837565b1980831691505092915050565b600062000872838362000844565b9150826002028217905092915050565b6200088d8262000637565b67ffffffffffffffff811115620008a957620008a86200036c565b5b620008b5825462000671565b620008c2828285620007e7565b600060209050601f831160018114620008fa5760008415620008e5578287015190505b620008f1858262000864565b86555062000961565b601f1984166200090a86620006a6565b60005b8281101562000934578489015182556001820191506020850194506020810190506200090d565b8683101562000954578489015162000950601f89168262000844565b8355505b6001600288020188555050505b505050505050565b620009748162000311565b82525050565b600060208201905062000991600083018462000969565b92915050565b7f4e487b7100000000000000000000000000000000000000000000000000000000600052603260045260246000fd5b6129ec80620009d66000396000f3fe608060405234801561001057600080fd5b506004361061014d5760003560e01c806370a08231116100c3578063a3ec138d1161007c578063a3ec138d14610352578063b88d4fde14610382578063c87b56dd1461039e578063cfb62dee146103ce578063e985e9c5146103ec578063f2fde38b1461041c5761014d565b806370a08231146102b6578063715018a6146102e65780638456cb59146102f05780638da5cb5b146102fa57806395d89b4114610318578063a22cb465146103365761014d565b806323b872dd1161011557806323b872dd146102085780632fa23543146102245780633f4ba83a1461024257806342842e0e1461024c5780635c975abb146102685780636352211e146102865761014d565b80630121b93f1461015257806301ffc9a71461016e57806306fdde031461019e578063081812fc146101bc578063095ea7b3146101ec575b600080fd5b61016c60048036038101906101679190611eb0565b610438565b005b61018860048036038101906101839190611f35565b610680565b6040516101959190611f7d565b60405180910390f35b6101a6610762565b6040516101b39190612028565b60405180910390f35b6101d660048036038101906101d19190611eb0565b6107f4565b6040516101e3919061208b565b60405180910390f35b610206600480360381019061020191906120d2565b610810565b005b610222600480360381019061021d9190612112565b610826565b005b61022c610928565b6040516102399190611f7d565b60405180910390f35b61024a61098d565b005b61026660048036038101906102619190612112565b61099f565b005b6102706109bf565b60405161027d9190611f7d565b60405180910390f35b6102a0600480360381019061029b9190611eb0565b6109d6565b6040516102ad919061208b565b60405180910390f35b6102d060048036038101906102cb9190612165565b6109e8565b6040516102dd91906121a1565b60405180910390f35b6102ee610aa2565b005b6102f8610ab6565b005b610302610ac8565b60405161030f919061208b565b60405180910390f35b610320610af2565b60405161032d9190612028565b60405180910390f35b610350600480360381019061034b91906121e8565b610b84565b005b61036c60048036038101906103679190612165565b610b9a565b6040516103799190611f7d565b60405180910390f35b61039c6004803603810190610397919061235d565b610bba565b005b6103b860048036038101906103b39190611eb0565b610bd7565b6040516103c59190612028565b60405180910390f35b6103d6610c40565b6040516103e39190612538565b60405180910390f35b6104066004803603810190610401919061255a565b610d43565b6040516104139190611f7d565b60405180910390f35b61043660048036038101906104319190612165565b610dd7565b005b3373ffffffffffffffffffffffffffffffffffffffff16610457610ac8565b73ffffffffffffffffffffffffffffffffffffffff16036104ad576040517f08c379a00000000000000000000000000000000000000000000000000000000081526004016104a4906125e6565b60405180910390fd5b60088054905081106104f4576040517f08c379a00000000000000000000000000000000000000000000000000000000081526004016104eb90612652565b60405180910390fd5b600960003373ffffffffffffffffffffffffffffffffffffffff1673ffffffffffffffffffffffffffffffffffffffff16815260200190815260200160002060009054906101000a900460ff1615610581576040517f08c379a0000000000000000000000000000000000000000000000000000000008152600401610578906126be565b60405180910390fd5b6000600760008154809291906105969061270d565b9190505590506105a63382610e5d565b600882815481106105ba576105b9612755565b5b906000526020600020906002020160010160008154809291906105dc9061270d565b91905055506001600960003373ffffffffffffffffffffffffffffffffffffffff1673ffffffffffffffffffffffffffffffffffffffff16815260200190815260200160002060006101000a81548160ff0219169083151502179055503373ffffffffffffffffffffffffffffffffffffffff167fb87a61d78bd15221c59b983f6ef032fbde0631e66bfe18d1421fe5a73c16741d60405160405180910390a25050565b60007f80ac58cd000000000000000000000000000000000000000000000000000000007bffffffffffffffffffffffffffffffffffffffffffffffffffffffff1916827bffffffffffffffffffffffffffffffffffffffffffffffffffffffff1916148061074b57507f5b5e139f000000000000000000000000000000000000000000000000000000007bffffffffffffffffffffffffffffffffffffffffffffffffffffffff1916827bffffffffffffffffffffffffffffffffffffffffffffffffffffffff1916145b8061075b575061075a82610f56565b5b9050919050565b606060008054610771906127b3565b80601f016020809104026020016040519081016040528092919081815260200182805461079d906127b3565b80156107ea5780601f106107bf576101008083540402835291602001916107ea565b820191906000526020600020905b8154815290600101906020018083116107cd57829003601f168201915b5050505050905090565b60006107ff82610fc0565b5061080982611048565b9050919050565b610822828261081d611085565b61108d565b5050565b600073ffffffffffffffffffffffffffffffffffffffff168273ffffffffffffffffffffffffffffffffffffffff16036108985760006040517f64a0ae9200000000000000000000000000000000000000000000000000000000815260040161088f919061208b565b60405180910390fd5b60006108ac83836108a7611085565b61109f565b90508373ffffffffffffffffffffffffffffffffffffffff168173ffffffffffffffffffffffffffffffffffffffff1614610922578382826040517f64283d7b000000000000000000000000000000000000000000000000000000008152600401610919939291906127e4565b60405180910390fd5b50505050565b6000600960003373ffffffffffffffffffffffffffffffffffffffff1673ffffffffffffffffffffffffffffffffffffffff16815260200190815260200160002060009054906101000a900460ff1615610985576001905061098a565b600090505b90565b6109956110b5565b61099d61113c565b565b6109ba83838360405180602001604052806000815250610bba565b505050565b6000600660009054906101000a900460ff16905090565b60006109e182610fc0565b9050919050565b60008073ffffffffffffffffffffffffffffffffffffffff168273ffffffffffffffffffffffffffffffffffffffff1603610a5b5760006040517f89c62b64000000000000000000000000000000000000000000000000000000008152600401610a52919061208b565b60405180910390fd5b600360008373ffffffffffffffffffffffffffffffffffffffff1673ffffffffffffffffffffffffffffffffffffffff168152602001908152602001600020549050919050565b610aaa6110b5565b610ab4600061119f565b565b610abe6110b5565b610ac6611265565b565b6000600660019054906101000a900473ffffffffffffffffffffffffffffffffffffffff16905090565b606060018054610b01906127b3565b80601f0160208091040260200160405190810160405280929190818152602001828054610b2d906127b3565b8015610b7a5780601f10610b4f57610100808354040283529160200191610b7a565b820191906000526020600020905b815481529060010190602001808311610b5d57829003601f168201915b5050505050905090565b610b96610b8f611085565b83836112c8565b5050565b60096020528060005260406000206000915054906101000a900460ff1681565b610bc5848484610826565b610bd184848484611437565b50505050565b6060610be282610fc0565b506000610bed6115ee565b90506000815111610c0d5760405180602001604052806000815250610c38565b80610c1784611605565b604051602001610c28929190612857565b6040516020818303038152906040525b915050919050565b6060610c4a6110b5565b6008805480602002602001604051908101604052809291908181526020016000905b82821015610d3a5783829060005260206000209060020201604051806040016040529081600082018054610c9f906127b3565b80601f0160208091040260200160405190810160405280929190818152602001828054610ccb906127b3565b8015610d185780601f10610ced57610100808354040283529160200191610d18565b820191906000526020600020905b815481529060010190602001808311610cfb57829003601f168201915b5050505050815260200160018201548152505081526020019060010190610c6c565b50505050905090565b6000600560008473ffffffffffffffffffffffffffffffffffffffff1673ffffffffffffffffffffffffffffffffffffffff16815260200190815260200160002060008373ffffffffffffffffffffffffffffffffffffffff1673ffffffffffffffffffffffffffffffffffffffff16815260200190815260200160002060009054906101000a900460ff16905092915050565b610ddf6110b5565b600073ffffffffffffffffffffffffffffffffffffffff168173ffffffffffffffffffffffffffffffffffffffff1603610e515760006040517f1e4fbdf7000000000000000000000000000000000000000000000000000000008152600401610e48919061208b565b60405180910390fd5b610e5a8161119f565b50565b600073ffffffffffffffffffffffffffffffffffffffff168273ffffffffffffffffffffffffffffffffffffffff1603610ecf5760006040517f64a0ae92000000000000000000000000000000000000000000000000000000008152600401610ec6919061208b565b60405180910390fd5b6000610edd8383600061109f565b9050600073ffffffffffffffffffffffffffffffffffffffff168173ffffffffffffffffffffffffffffffffffffffff1614610f515760006040517f73c6ac6e000000000000000000000000000000000000000000000000000000008152600401610f48919061208b565b60405180910390fd5b505050565b60007f01ffc9a7000000000000000000000000000000000000000000000000000000007bffffffffffffffffffffffffffffffffffffffffffffffffffffffff1916827bffffffffffffffffffffffffffffffffffffffffffffffffffffffff1916149050919050565b600080610fcc836116d3565b9050600073ffffffffffffffffffffffffffffffffffffffff168173ffffffffffffffffffffffffffffffffffffffff160361103f57826040517f7e27328900000000000000000000000000000000000000000000000000000000815260040161103691906121a1565b60405180910390fd5b80915050919050565b60006004600083815260200190815260200160002060009054906101000a900473ffffffffffffffffffffffffffffffffffffffff169050919050565b600033905090565b61109a8383836001611710565b505050565b60006110ac8484846118d5565b90509392505050565b6110bd611085565b73ffffffffffffffffffffffffffffffffffffffff166110db610ac8565b73ffffffffffffffffffffffffffffffffffffffff161461113a576110fe611085565b6040517f118cdaa7000000000000000000000000000000000000000000000000000000008152600401611131919061208b565b60405180910390fd5b565b6111446118f3565b6000600660006101000a81548160ff0219169083151502179055507f5db9ee0a495bf2e6ff9c91a7834c1ba4fdd244a5e8aa4e537bd38aeae4b073aa611188611085565b604051611195919061208b565b60405180910390a1565b6000600660019054906101000a900473ffffffffffffffffffffffffffffffffffffffff16905081600660016101000a81548173ffffffffffffffffffffffffffffffffffffffff021916908373ffffffffffffffffffffffffffffffffffffffff1602179055508173ffffffffffffffffffffffffffffffffffffffff168173ffffffffffffffffffffffffffffffffffffffff167f8be0079c531659141344cd1fd0a4f28419497f9722a3daafe3b4186f6b6457e060405160405180910390a35050565b61126d611933565b6001600660006101000a81548160ff0219169083151502179055507f62e78cea01bee320cd4e420270b5ea74000d11b0c9f74754ebdbfc544b05a2586112b1611085565b6040516112be919061208b565b60405180910390a1565b600073ffffffffffffffffffffffffffffffffffffffff168273ffffffffffffffffffffffffffffffffffffffff160361133957816040517f5b08ba18000000000000000000000000000000000000000000000000000000008152600401611330919061208b565b60405180910390fd5b80600560008573ffffffffffffffffffffffffffffffffffffffff1673ffffffffffffffffffffffffffffffffffffffff16815260200190815260200160002060008473ffffffffffffffffffffffffffffffffffffffff1673ffffffffffffffffffffffffffffffffffffffff16815260200190815260200160002060006101000a81548160ff0219169083151502179055508173ffffffffffffffffffffffffffffffffffffffff168373ffffffffffffffffffffffffffffffffffffffff167f17307eab39ab6107e8899845ad3d59bd9653f200f220920489ca2b5937696c318360405161142a9190611f7d565b60405180910390a3505050565b60008373ffffffffffffffffffffffffffffffffffffffff163b11156115e8578273ffffffffffffffffffffffffffffffffffffffff1663150b7a0261147b611085565b8685856040518563ffffffff1660e01b815260040161149d94939291906128d0565b6020604051808303816000875af19250505080156114d957506040513d601f19601f820116820180604052508101906114d69190612931565b60015b61155d573d8060008114611509576040519150601f19603f3d011682016040523d82523d6000602084013e61150e565b606091505b50600081510361155557836040517f64a0ae9200000000000000000000000000000000000000000000000000000000815260040161154c919061208b565b60405180910390fd5b805181602001fd5b63150b7a0260e01b7bffffffffffffffffffffffffffffffffffffffffffffffffffffffff1916817bffffffffffffffffffffffffffffffffffffffffffffffffffffffff1916146115e657836040517f64a0ae920000000000000000000000000000000000000000000000000000000081526004016115dd919061208b565b60405180910390fd5b505b50505050565b606060405180602001604052806000815250905090565b60606000600161161484611974565b01905060008167ffffffffffffffff81111561163357611632612232565b5b6040519080825280601f01601f1916602001820160405280156116655781602001600182028036833780820191505090505b509050600082602001820190505b6001156116c8578080600190039150507f3031323334353637383961626364656600000000000000000000000000000000600a86061a8153600a85816116bc576116bb61295e565b5b04945060008503611673575b819350505050919050565b60006002600083815260200190815260200160002060009054906101000a900473ffffffffffffffffffffffffffffffffffffffff169050919050565b80806117495750600073ffffffffffffffffffffffffffffffffffffffff168273ffffffffffffffffffffffffffffffffffffffff1614155b1561187d57600061175984610fc0565b9050600073ffffffffffffffffffffffffffffffffffffffff168373ffffffffffffffffffffffffffffffffffffffff16141580156117c457508273ffffffffffffffffffffffffffffffffffffffff168173ffffffffffffffffffffffffffffffffffffffff1614155b80156117d757506117d58184610d43565b155b1561181957826040517fa9fbf51f000000000000000000000000000000000000000000000000000000008152600401611810919061208b565b60405180910390fd5b811561187b57838573ffffffffffffffffffffffffffffffffffffffff168273ffffffffffffffffffffffffffffffffffffffff167f8c5be1e5ebec7d5bd14f71427d1e84f3dd0314c0f7b2291e5b200ac8c7c3b92560405160405180910390a45b505b836004600085815260200190815260200160002060006101000a81548173ffffffffffffffffffffffffffffffffffffffff021916908373ffffffffffffffffffffffffffffffffffffffff16021790555050505050565b60006118df611933565b6118ea848484611ac7565b90509392505050565b6118fb6109bf565b611931576040517f8dfc202b00000000000000000000000000000000000000000000000000000000815260040160405180910390fd5b565b61193b6109bf565b15611972576040517fd93c066500000000000000000000000000000000000000000000000000000000815260040160405180910390fd5b565b600080600090507a184f03e93ff9f4daa797ed6e38ed64bf6a1f01000000000000000083106119d2577a184f03e93ff9f4daa797ed6e38ed64bf6a1f01000000000000000083816119c8576119c761295e565b5b0492506040810190505b6d04ee2d6d415b85acef81000000008310611a0f576d04ee2d6d415b85acef81000000008381611a0557611a0461295e565b5b0492506020810190505b662386f26fc100008310611a3e57662386f26fc100008381611a3457611a3361295e565b5b0492506010810190505b6305f5e1008310611a67576305f5e1008381611a5d57611a5c61295e565b5b0492506008810190505b6127108310611a8c576127108381611a8257611a8161295e565b5b0492506004810190505b60648310611aaf5760648381611aa557611aa461295e565b5b0492506002810190505b600a8310611abe576001810190505b80915050919050565b600080611ad3846116d3565b9050600073ffffffffffffffffffffffffffffffffffffffff168373ffffffffffffffffffffffffffffffffffffffff1614611b1557611b14818486611ce1565b5b600073ffffffffffffffffffffffffffffffffffffffff168173ffffffffffffffffffffffffffffffffffffffff1614611ba657611b57600085600080611710565b6001600360008373ffffffffffffffffffffffffffffffffffffffff1673ffffffffffffffffffffffffffffffffffffffff168152602001908152602001600020600082825403925050819055505b600073ffffffffffffffffffffffffffffffffffffffff168573ffffffffffffffffffffffffffffffffffffffff1614611c29576001600360008773ffffffffffffffffffffffffffffffffffffffff1673ffffffffffffffffffffffffffffffffffffffff168152602001908152602001600020600082825401925050819055505b846002600086815260200190815260200160002060006101000a81548173ffffffffffffffffffffffffffffffffffffffff021916908373ffffffffffffffffffffffffffffffffffffffff160217905550838573ffffffffffffffffffffffffffffffffffffffff168273ffffffffffffffffffffffffffffffffffffffff167fddf252ad1be2c89b69c2b068fc378daa952ba7f163c4a11628f55a4df523b3ef60405160405180910390a4809150509392505050565b611cec838383611da5565b611da057600073ffffffffffffffffffffffffffffffffffffffff168373ffffffffffffffffffffffffffffffffffffffff1603611d6157806040517f7e273289000000000000000000000000000000000000000000000000000000008152600401611d5891906121a1565b60405180910390fd5b81816040517f177e802f000000000000000000000000000000000000000000000000000000008152600401611d9792919061298d565b60405180910390fd5b505050565b60008073ffffffffffffffffffffffffffffffffffffffff168373ffffffffffffffffffffffffffffffffffffffff1614158015611e5d57508273ffffffffffffffffffffffffffffffffffffffff168473ffffffffffffffffffffffffffffffffffffffff161480611e1e5750611e1d8484610d43565b5b80611e5c57508273ffffffffffffffffffffffffffffffffffffffff16611e4483611048565b73ffffffffffffffffffffffffffffffffffffffff16145b5b90509392505050565b6000604051905090565b600080fd5b600080fd5b6000819050919050565b611e8d81611e7a565b8114611e9857600080fd5b50565b600081359050611eaa81611e84565b92915050565b600060208284031215611ec657611ec5611e70565b5b6000611ed484828501611e9b565b91505092915050565b60007fffffffff0000000000000000000000000000000000000000000000000000000082169050919050565b611f1281611edd565b8114611f1d57600080fd5b50565b600081359050611f2f81611f09565b92915050565b600060208284031215611f4b57611f4a611e70565b5b6000611f5984828501611f20565b91505092915050565b60008115159050919050565b611f7781611f62565b82525050565b6000602082019050611f926000830184611f6e565b92915050565b600081519050919050565b600082825260208201905092915050565b60005b83811015611fd2578082015181840152602081019050611fb7565b60008484015250505050565b6000601f19601f8301169050919050565b6000611ffa82611f98565b6120048185611fa3565b9350612014818560208601611fb4565b61201d81611fde565b840191505092915050565b600060208201905081810360008301526120428184611fef565b905092915050565b600073ffffffffffffffffffffffffffffffffffffffff82169050919050565b60006120758261204a565b9050919050565b6120858161206a565b82525050565b60006020820190506120a0600083018461207c565b92915050565b6120af8161206a565b81146120ba57600080fd5b50565b6000813590506120cc816120a6565b92915050565b600080604083850312156120e9576120e8611e70565b5b60006120f7858286016120bd565b925050602061210885828601611e9b565b9150509250929050565b60008060006060848603121561212b5761212a611e70565b5b6000612139868287016120bd565b935050602061214a868287016120bd565b925050604061215b86828701611e9b565b9150509250925092565b60006020828403121561217b5761217a611e70565b5b6000612189848285016120bd565b91505092915050565b61219b81611e7a565b82525050565b60006020820190506121b66000830184612192565b92915050565b6121c581611f62565b81146121d057600080fd5b50565b6000813590506121e2816121bc565b92915050565b600080604083850312156121ff576121fe611e70565b5b600061220d858286016120bd565b925050602061221e858286016121d3565b9150509250929050565b600080fd5b600080fd5b7f4e487b7100000000000000000000000000000000000000000000000000000000600052604160045260246000fd5b61226a82611fde565b810181811067ffffffffffffffff8211171561228957612288612232565b5b80604052505050565b600061229c611e66565b90506122a88282612261565b919050565b600067ffffffffffffffff8211156122c8576122c7612232565b5b6122d182611fde565b9050602081019050919050565b82818337600083830152505050565b60006123006122fb846122ad565b612292565b90508281526020810184848401111561231c5761231b61222d565b5b6123278482856122de565b509392505050565b600082601f83011261234457612343612228565b5b81356123548482602086016122ed565b91505092915050565b6000806000806080858703121561237757612376611e70565b5b6000612385878288016120bd565b9450506020612396878288016120bd565b93505060406123a787828801611e9b565b925050606085013567ffffffffffffffff8111156123c8576123c7611e75565b5b6123d48782880161232f565b91505092959194509250565b600081519050919050565b600082825260208201905092915050565b6000819050602082019050919050565b600082825260208201905092915050565b600061242882611f98565b612432818561240c565b9350612442818560208601611fb4565b61244b81611fde565b840191505092915050565b61245f81611e7a565b82525050565b60006040830160008301518482036000860152612482828261241d565b91505060208301516124976020860182612456565b508091505092915050565b60006124ae8383612465565b905092915050565b6000602082019050919050565b60006124ce826123e0565b6124d881856123eb565b9350836020820285016124ea856123fc565b8060005b85811015612526578484038952815161250785826124a2565b9450612512836124b6565b925060208a019950506001810190506124ee565b50829750879550505050505092915050565b6000602082019050818103600083015261255281846124c3565b905092915050565b6000806040838503121561257157612570611e70565b5b600061257f858286016120bd565b9250506020612590858286016120bd565b9150509250929050565b7f4f776e65722063616e6e6f742063617374206120766f74650000000000000000600082015250565b60006125d0601883611fa3565b91506125db8261259a565b602082019050919050565b600060208201905081810360008301526125ff816125c3565b9050919050565b7f4e6f2063616e64696461746520666f756e640000000000000000000000000000600082015250565b600061263c601283611fa3565b915061264782612606565b602082019050919050565b6000602082019050818103600083015261266b8161262f565b9050919050565b7f596f75206861766520616c726561647920766f74650000000000000000000000600082015250565b60006126a8601583611fa3565b91506126b382612672565b602082019050919050565b600060208201905081810360008301526126d78161269b565b9050919050565b7f4e487b7100000000000000000000000000000000000000000000000000000000600052601160045260246000fd5b600061271882611e7a565b91507fffffffffffffffffffffffffffffffffffffffffffffffffffffffffffffffff820361274a576127496126de565b5b600182019050919050565b7f4e487b7100000000000000000000000000000000000000000000000000000000600052603260045260246000fd5b7f4e487b7100000000000000000000000000000000000000000000000000000000600052602260045260246000fd5b600060028204905060018216806127cb57607f821691505b6020821081036127de576127dd612784565b5b50919050565b60006060820190506127f9600083018661207c565b6128066020830185612192565b612813604083018461207c565b949350505050565b600081905092915050565b600061283182611f98565b61283b818561281b565b935061284b818560208601611fb4565b80840191505092915050565b60006128638285612826565b915061286f8284612826565b91508190509392505050565b600081519050919050565b600082825260208201905092915050565b60006128a28261287b565b6128ac8185612886565b93506128bc818560208601611fb4565b6128c581611fde565b840191505092915050565b60006080820190506128e5600083018761207c565b6128f2602083018661207c565b6128ff6040830185612192565b81810360608301526129118184612897565b905095945050505050565b60008151905061292b81611f09565b92915050565b60006020828403121561294757612946611e70565b5b60006129558482850161291c565b91505092915050565b7f4e487b7100000000000000000000000000000000000000000000000000000000600052601260045260246000fd5b60006040820190506129a2600083018561207c565b6129af6020830184612192565b939250505056fea2646970667358221220fde1b7c94f0418151a5f27ee028fc3efe79e5413b6988348263d98e23af0c73f64736f6c63430008180033",
  "linkReferences": {},
  "deployedLinkReferences": {}
}